:020000040800F2
:10000000387E01205D0300083F4700087521000885
:100010003D470008B91C00086D5A000800000000A8
:100020000000000000000000000000009D02000829
:10003000851E000800000000F9020008ED520008CB
:100040009103000891030008910300089103000840
:100050009103000891030008910300089103000830
:100060009103000891030008D51E000891030008C1
:1000700091030008BD1C00089103000891030008CB
:100080009103000891030008910300089103000800
:100090009103000891030008910300080D1F000858
:1000A00091030008495300089103000891030008D8
:1000B000CD53000891030008910300089103000844
:1000C00091030008910300089103000891030008C0
:1000D00091030008495A00089103000891030008A1
:1000E00091030008910300089103000891030008A0
:1000F000F5530008910300089103000891030008DC
:10010000910300089103000891030008910300087F
:10011000910300089103000891030008910300086F
:10012000910300089103000891030008910300085F
:10013000910300089103000891030008910300084F
:1001400000000000000000000000000000000000AF
:10015000910300089103000891030008910300082F
:10016000910300089103000891030008910300081F
:10017000910300089103000891030008910300080F
:100180009103000800F002F800F078F80AA090E867
:10019000000C82448344AAF10107DA4501D100F042
:1001A0006DF8AFF2090EBAE80F0013F0010F18BF97
:1001B000FB1A43F001031847747F0900947F09007C
:1001C0000A444FF0000C10F8013B13F0070408BF7D
:1001D00010F8014B1D1108BF10F8015B641E05D01B
:1001E00010F8016B641E01F8016BF9D113F0080FD0
:1001F0001EBF10F8014BAD1C0C1B09D16D1E58BF62
:1002000001F801CBFAD505E014F8016B01F8016B98
:100210006D1EF9D59142D6D370470000002300240B
:1002200000250026103A28BF78C1FBD8520728BF06
:1002300030C148BF0B607047662921F022A76429AE
:1002400000F07E81782900F0B781732900F05F8685
:10025000002070471FB561F00AFF00F0B3FE0400F4
:100260000020002161F0F4FB401C606000200021B0
:1002700061F0D8FBE0601FBD10B510BD00F0F2FFCB
:100280001146FFF7E7FF5AF017FF01F01EF803B41D
:10029000FFF7F2FF03BC07F00CFD00002C4B1968C0
:1002A0000868B0E8F04F80F30988BFF36F8F4FF014
:1002B000000080F3118870470000000008480068C3
:1002C000006880F308884FF0000080F3148862B65D
:1002D00061B6BFF34F8FBFF36F8F00DF00BF00BF6A
:1002E00008ED00E0DFF80C00016841F470010160E6
:1002F000704700BF88ED00E0EFF30980BFF36F8F18
:10030000134B1A681EF0100F08BF20ED108A20E969
:10031000F04F106009B44FF0500080F31188BFF324
:100320004F8FBFF36F8F60F041FE4FF0000080F3FE
:10033000118809BC19680868B0E8F04F1EF0100F6A
:1003400008BFB0EC108A80F30988BFF36F8F704745
:1003500024000020EFF305807047000041F2000008
:10036000C2F2000085460E48804740F20000C0F609
:100370000000D0F800D00B4880470B480047FEE74C
:10038000FEE7FEE7FEE7FEE7FEE7FEE7FEE7FEE745
:10039000FEE7000005480649064A074B7047000083
:1003A000710D0108F152000885010008385E012036
:1003B000387E0120386E0120386E0120704753EAE4
:1003C000020C00F069802DE9F04B4FF00006002B85
:1003D0001FBFB3FA83F503FA05F424FA05F65E406D
:1003E00012BF1643B2FA82F502FA05F4C5F12005F0
:1003F0001EBF22FA05FC44EA0C04203556EA044CE0
:100400004FEA144418BF641C4FF000084FF0000975
:10041000904271EB030C39D3002919BFB1FA81F76F
:1004200001FA07F6B0FA80F700FA07F6C7F12007DD
:100430001EBF20FA07FC46EA0C062037B6FBF4FC88
:10044000A7EB0507103F07F01F0BCBF120060CFAB6
:100450000BFB2CFA06F644BFB3460026202FA4BFA0
:100460005E464FF0000B5BEA060C08BF4FF0010B35
:1004700019EB0B09ABFB027C48EB0608C01B06FB23
:1004800002CC0BFB03CC71EB0C01C1E70B4602461F
:1004900041464846BDE8F08B13B54FF000004FF0E1
:1004A0000001AFF30080BDE81C4070470FB4044961
:1004B00010B503AA029800F02FFD10BC5DF814FBE4
:1004C0001C0000200FB41CB5074B06AA7B446946EC
:1004D0000090059800F0F1FC0020694600F000FD56
:1004E0001CBC5DF814FB0000110A000070B50C463E
:1004F0000546012A05D02878800600D5EA69002340
:1005000002E0012305E05B1C934202D2E05C00287C
:10051000F9D1A869E618C01AA861286A18442862A7
:100520002846AFF3008004E0D5E9012114F8010B5F
:100530009047B442F8D32846AFF3008070BD000066
:100540002DE9F0410646002410687529314616A5AC
:1005500010D0AFF30080002802DA404213A507E074
:1005600031688A0701D512A502E0490704D511A513
:10057000012401E0AFF3008000210A2206F12407E4
:1005800009E0B0FBF2FCB0FBF2F302FB1C003030E0
:1005900078541846491C0028F3D123462A46304691
:1005A000BDE8F04100F01CBA000000002D00000082
:1005B0002B0000002000000070B504460D462146C7
:1005C0001068AFF300802188090502D50F4A7A44EC
:1005D00002E00E4A7A440E32002104F1240305E0C1
:1005E00000F00F060009965D5E54491C0028F7D103
:1005F00020780023000704D5702D02D009B1022312
:1006000011322046BDE8704000F0EAB99673090047
:100610002DE9F0474FF0000A89460446C0F820A0B3
:100620002046E1688847002876D0252806D0D4E9FE
:1006300001219047206A401C2062F1E7E1682046D2
:1006400000258847C4F81CA006460027C4F818A057
:100650002A2E09D0304605F023FD38B304EB870875
:10066000303EC8F8186019E059F8041B204604EB26
:1006700087029161E1688847012F064618D1E06939
:10068000002820DA25F020051DE0D8F8180000EB3E
:10069000800006EB40003038C8F818002046E168BA
:1006A0008847064605F0FCFC0028EED1012F0AD051
:1006B0002E2E08D12046E16888477F1C0646022F6F
:1006C00045F02005C4DBA069002803DA404245F06C
:1006D0000105A061E80701D025F01005B6B1A6F12B
:1006E0004100192802D8203645F400654A463146B3
:1006F000204625604D46FFF79FFD58B1012806D0E2
:10070000ED1D25F0070000F1080989E704E005F177
:10071000040985E730468AE7206ABDE8F08770B5AE
:10072000064600F059F90468054630460A220021C1
:1007300000F004FC2C6070BD40EA0103024630B5B5
:100740009B0710D14FF0013400E008C208C91D1BFF
:100750009D4315EAC41FF8D013F0FF0102F8011BF6
:100760000DD01B0AF8E711F8013B002B02F8013B02
:1007700005D011F8013B002B02F8013BF3D130BD4D
:1007800010B5431C02E010F8011B71B18107FAD1CA
:100790004FF0013202C88C1A8C4314EAC211F9D00E
:1007A000C01A0A0603D0C01E10BDC01A10BD0A042C
:1007B00001D0801E10BD0902FCD0401E10BD032ACE
:1007C00040F2308010F0030C00F0158011F8013B6E
:1007D000BCF1020F624498BF11F801CB00F8013B55
:1007E00038BF11F8013BA2F1040298BF00F801CB19
:1007F00038BF00F8013B11F0030300F02580083AF0
:10080000C0F0088051F8043B083A51F804CBA0E846
:100810000810F5E7121D5CBF51F8043B40F8043B9B
:10082000AFF30080D20724BF11F8013B11F801CBD0
:1008300048BF11F8012B24BF00F8013B00F801CBA1
:1008400048BF00F8012B704710B5203AC0F00B806C
:10085000B1E81850203AA0E81850B1E81850A0E8C4
:100860001850BFF4F5AF5FEA027C24BFB1E818501E
:10087000A0E8185044BF18C918C0BDE810405FEA8E
:10088000827C24BF51F8043B40F8043B08BF70470A
:10089000D20728BF31F8023B48BF11F8012B28BF0F
:1008A00020F8023B48BF00F8012B704702F0FF031D
:1008B00043EA032242EA024200F002B84FF000028B
:1008C0000429C0F0128010F0030C00F01B80CCF162
:1008D000040CBCF1020F18BF00F8012BA8BF20F8D0
:1008E000022BA1EB0C0100F00DB85FEAC17C24BF24
:1008F00000F8012B00F8012B48BF00F8012B7047CE
:100900004FF0000200B5134694469646203922BFA8
:10091000A0E80C50A0E80C50B1F12001BFF4F7AFF3
:10092000090728BFA0E80C5048BF0CC05DF804EBD5
:10093000890028BF40F8042B08BF704748BF20F843
:10094000022B11F0804F18BF00F8012B70470000F8
:100950004FF0013C50F8042B51F8043B9A4221D14E
:10096000A2EB0C03934313EACC1317D150F8042BDA
:1009700051F8043B9A4215D1A2EB0C03934313EABE
:10098000CC130BD150F8042B51F8043B9A4209D1F7
:10099000A2EB0C03934313EACC13DBD04FF000001F
:1009A000704700BFD01A01BAB1FA81F101F0180105
:1009B00022FA01F0CB40C1F12001DBB2C0B2C01A73
:1009C0002CFA01F3D11A914311EAC311E6D1704711
:1009D000704770477047704700487047D85D0120E6
:1009E0002DE9F0470D4699469246044600F1240849
:1009F0000168880604D5E06921F01001216000E05B
:100A00000120A84201DD471B00E00027A1697A19F7
:100A100002EB0900081AA0612078C00602D4204623
:100A2000AFF30080002608E0D4E901211AF806009F
:100A30009047206A401C761C20624E45F4DB2078EB
:100A4000C0060AD52046AFF3008006E0D4E90121B4
:100A500030209047206A401C2062381EA7F1010711
:100A6000F4DC07E0D4E9012118F805009047206A7A
:100A7000401C2062281EA5F10105F3DC2046AFF3DF
:100A800000802078000602D50220BDE8F087012012
:100A9000FBE770472DE9FF4F0C461E464FF0FF372E
:100AA0008BB0D2E90001DDF860800A908A46C1F37C
:100AB0000A5505B93D46002108464FF00000BAF13D
:100AC000000F00F4400005DA00EB80004FF4400115
:100AD00001EA50004FEA9059B9F1010F00DDB94623
:100AE0000A9850EA4A000ED044F61050A5F2FF359D
:100AF00045432F14B8F1000F1ED07542291E1EDD8C
:100B0000C9F100021CE0B8F1010F4FF0000001D064
:100B1000302103E0F24305E02154401CB042FBDBEE
:100B200030460022002121540B99C1F80880C1E908
:100B300000200FB0BDE8F08FBD1B6D1CDEE74A46FC
:100B400000DA694206A800F017FB06AB93E807003D
:100B500003AB83E8070050460A9900F0BFFB8DE81D
:100B60000700A0F500501F3800900398002D0ADD03
:100B700042F21F014A460844002303A90390684635
:100B800000F028FE09E0A0F500504A461F38002377
:100B900003A90390684600F032FE8DE807000004C8
:100BA000000C03D04FF0FF30410800E01046B8F1D0
:100BB000000F03D00022009215461EE0751E05D4DA
:100BC00000F004FA303262556D1EF9D5B3460122A9
:100BD000084302D000227F1C04E02078302801D195
:100BE00000227F1E002A099784D01DE0112D07DA0C
:100BF00000F0ECF9303262556D1C50EA0102F5D17B
:100C0000084302D00098C8B10EE00021681E05E03C
:100C1000235C625C63542254401E491C8142F7DB12
:100C2000AB46A81B401E0990002004F80B000B984F
:100C3000099AC0F80880C0E9002B7AE711264FF026
:100C4000000857E72DE9F04F88460446D21D22F0F0
:100C5000070191B0D1E90001CDE90A0105F078F969
:100C600002460B98C00F01D02D2007E020688107B5
:100C700001D52B2002E0202101EAC000032A0990BF
:100C800001D0072A05DB03464146204600F0E4F97F
:100C90000BE12078800601D5E06900E00620B8F17C
:100CA000650F814606D0B8F1660F18D0B8F1670F0E
:100CB00070D131E00020B9F1110F009001DB112358
:100CC00001E009F101030AAA01A90CA8FFF7E2FE5D
:100CD000DDE90C70002609F10105834647E001209B
:100CE0004B4600904FF000470AAA01A90CA8FFF755
:100CF000D1FEDDE90DB00C995D46002610B909F171
:100D000001000D18B9EB050003D4C0F1FF3609F15D
:100D10000105A5EB09002BE0B9F1010F01DA4FF055
:100D200001090020B9F1110F0090484601DD11239F
:100D300000E003460AAA01A90CA8FFF7ABFEDDE913
:100D40000C704D4600268346207800070AD4AB4538
:100D500000DA5D4601A8012D04DD411911F8011CDE
:100D6000302907D04F4502DA17F1040F04DA0120C9
:100D700082460FE06D1EEEE7002F02DCED1B3E44C5
:100D800003E0781CA84200DD7D1CB81B00F1010ABD
:100D90004FF000472078000703D4AA4501DB4FF04D
:100DA000FF3A0021B7F1004F0DF143088DF84310D1
:100DB00024D002202B23002F01DA7F422D230A2189
:100DC000021EA0F1010000DC5FB197FBF1FC97FB74
:100DD000F1F201FB1C7C17460CF1300C08F801CD38
:100DE000EEE7A8F1010003702188090501D545212E
:100DF00000E06521A0F1010800F8011C09980FA985
:100E0000A1EB0807FF1D00B10120411901EBEA70B9
:100E1000A1693844081A401EA0612078C00602D497
:100E20002046AFF30080099828B1D4E9012190470A
:100E3000206A401C20622078C00622D52046AFF3ED
:100E400000801EE0002E04DBB34502DD01A8805DBA
:100E500000E03020D4E901219047206A401C206244
:100E6000761CAAF101005FEA000A0AD100F0AAF894
:100E7000C0680168405CD4E901219047206A401CA9
:100E80002062281EA5F10105DCDC07E0D4E9012180
:100E900018F8010B9047206A401C2062381EA7F109
:100EA0000107F3DC2046AFF30080032011B041E6D8
:100EB00001694A1C02610878704700B58FB0CDE91E
:100EC00001310021059105497944CDE9031011460E
:100ED0006846FFF79DFB0FB000BD0000E5FFFFFF78
:100EE0000A6802F8010B0A60704710B5436913B134
:100EF000AFF3008001E0FFF7F9FA012010BD12788E
:100F000000F124010A7000224A700122EDE7116805
:100F10004FF0FF32E9E70000074B70B50D467B4408
:100F2000FFF7CBFF0446284600F098F910B14FF0C8
:100F3000FF3070BD204670BD3B1101002DE9F04728
:100F400091460F4680460446002614F8015B2DB1F9
:100F500000F030F80068405DC007F6D12B2D02D0BC
:100F60002D2D18D0641E4A463946204600F0B4F8AC
:100F700027B13968A14201D1C7F800804FF00204BF
:100F800071050BD54042002803DDFFF725FD046005
:100F9000A007BDE8F08746F48066E4E70028F8DAA9
:100FA000FFF71AFD04606FF00040F2E70048704759
:100FB000D85D012010B500F005F8001D10BD00BF80
:100FC000910A060000487047F85D012030B5B0F185
:100FD0000A024FEA900E71F100034EEA817EB0EBF7
:100FE0000E0061EB91014FEA101E4EEA017E10EBFC
:100FF0000E0041EB11114FEA102E4EEA016E10EB7C
:101000000E0041EB11214FEA104E4EEA014E10EB5B
:101010000E0041EB1141401841F100014FEAD000B0
:1010200040EA41704FEAD10110EB80054FEA81049C
:1010300044EA907444EB01046D1944EB0404521B20
:10104000A3414FF0000348BF0A3200D530BD401C19
:1010500041F1000130BD00002DE9F0411F4604467A
:1010600003260168072A01F4006004DB08B116A515
:1010700005E016A503E008B115A500E015A521F0CF
:1010800010002060A069C01EA0610FB1401EA061C9
:101090002046AFF300804FB1D4E901213846904794
:1010A000206A401C2062C01C206206E0206AFAE729
:1010B000D4E9012115F8010B9047761EF8D220469D
:1010C000AFF30080BDE8F0814E414E006E616E00CE
:1010D000494E4600696E66002DE9F05F824615466E
:1010E0008B4600270AF10104B9460078302801D068
:1010F0009DB113E014F8010B0127782803D058287C
:1011000001D045B10AE00DB1102D07D1002714F828
:10111000010B102502E0082500E00A250026B04654
:101120000EE005FB080005FB06F101271FFA80F819
:1011300001EB1046B6F5803F00D3B94614F8010B19
:10114000294600F0B4F80028EBDABBF1000F05D017
:101150000FB1641E00E05446CBF80040B9F1000F17
:1011600006D0FFF739FC02210160C81EBDE8F09FE0
:1011700048EA0640FAE700002DE9F04781461646A6
:101180008AB0354878440DC88DE80D00324878445F
:10119000801C03AC0DC884E80D0041F69B30084468
:1011A000372190FBF1F290FBF1F5A5F1800501FBF1
:1011B00012041B3C02D56442012000E00020DFF84D
:1011C00098A080460027FA44AAF1BE0A0EE0E00784
:1011D0000AD03246684607EB470101230AEB81013A
:1011E00000F00DFB8DE8070064107F1C002CEED191
:1011F000194F7F44AE3F19E0E80715D007EB041004
:101200000DF1180A90E80E008AE80E00C068F0425E
:1012100001D1981908903246012306A903A800F0CD
:10122000EEFA03AB83E807006D10641C002DE3D1D8
:101230004FF0010332466946B8F1000F03A802D00F
:1012400000F0C8FA01E000F0DAFAC9E90001C9F8D3
:1012500008200AB0BDE8F08784680900007B00F030
:10126000800070477546FFF7A1FEAE46050069464F
:10127000534620F00700854618B020B5FFF78AF8DE
:10128000BDE820404FF000064FF000074FF0000887
:101290004FF0000B21F00701AC46ACE8C009ACE808
:1012A000C009ACE8C009ACE8C0098D4670473A28CF
:1012B00000D2303820F02002412A01D3A2F13700B9
:1012C000884201D34FF0FF30704710B50446AFF3AA
:1012D00000802046BDE81040FEF7D9BF5FEA400C11
:1012E00008BF91F0000F4FEA8C234FEAC12243EA76
:1012F00051514FEA1C5018BF00F5F0404FEA300042
:1013000018BF41F000415FEA6C5C00F02980BCF13D
:10131000FF3F08BF40F080407047130C06BF120427
:101320004FF0100C4FF0000C130E04BF12020CF122
:10133000080C130F04BF12010CF1040C930F04BF2F
:1013400092000CF1020CD30F04BF52000CF1010CFF
:1013500011464FF00002A0F11F00A0EB0C007047F7
:1013600011F0004F08BF704731F000413FF4D5AF96
:101370000B0C06BF09044FF0100C4FF0000C0B0EC5
:1013800004BF09020CF1080C0B0F04BF09010CF19A
:10139000040C8B0F04BF89000CF1020CCB0F04BFAF
:1013A00049000CF1010CCCF12003A0EB0C0022FA57
:1013B00003F302FA0CF241EA030100F10100704765
:1013C00020F07F4C80EA030023F07F47ACEB07035B
:1013D00003F57C5300F0004003F1FF032DE9804941
:1013E0004FEA154B09B44FEA144325EA0B4E24EAA1
:1013F00003480FF2042606EB132749083E785FEAFC
:10140000320203FB0667C7F5000707FB06F64FEA43
:1014100054374FEAD64606F1020607FB066CCCF1BC
:10142000005C4FEA1C472CEA074C07FB06F40CFB58
:1014300006F504EB15464FEA961634BF00204FF030
:1014400000404FEAD13706FB07FC4FEA1C4C0CFB6F
:101450000BF7D21B03FB0CF761EB07010CFB0EF73C
:10146000B0EB074072EB17420CFB08F734BFA2EB5E
:101470000742B2EB074261EB17414FEA0C444FEAD7
:10148000910706FB07FC4FEA1C4C0CFB0BF7B0EB7B
:10149000C74072EB573203FB0CF734BFA2EBC742D5
:1014A000B2EBC74261EB57310CFB0EF7B0EBC70054
:1014B00072EB57720CFB08F734BFA2EBC702B2EB1A
:1014C000C70261EB5771039F4FEA816141EA9211B4
:1014D00004EBCC044FEAD1374FEA826206FB07FCEB
:1014E00042EA90124FEA80604FEA1C4C0CFB0BF76B
:1014F000D21B03FB0CF761EB07010CFB0EF7B0EB03
:10150000074072EB17420CFB08F734BFA2EB07420F
:10151000B2EB074261EB17414FEA8C554FEA910756
:1015200004EB9C2406FB07FC4FEA1C4C0CFB0BF75E
:10153000B0EBC74072EB573203FB0CF734BFA2EBA2
:10154000C742B2EBC74261EB57310CFB0EF7B0EB71
:10155000C70072EB57720CFB08F734BFA2EBC7024F
:10156000B2EBC70261EB577115EB4C254FEA816175
:1015700041EA92114FEA82624FEAD13742EA901271
:1015800006FB07FC44F100044FEA80604FEA1C4C64
:101590000CFB0BF7D21B03FB0CF761EB07010CFBF9
:1015A0000EF7B0EB074072EB17420CFB08F734BFA5
:1015B000A2EB0742B2EB074261EB174115EB1C159A
:1015C0004FEA813141EA92414FEA823242EA904247
:1015D0004FEA80304FEA0C7644F1000448EA0343B6
:1015E0004EEA0B484FF0000EB2EB080C71EB03070C
:1015F00024BF624639464EEB0E0E4FF0000B00182A
:10160000524149414BEB0B0BB2EB080C71EB03075A
:101610007BF1000B24BF624639464EEB0E0E4FF0B5
:10162000000B0018524149414BEB0B0BB2EB080C7D
:1016300071EB03077BF1000B24BF624639464EEB8A
:101640000E0E51EA020718BF46F0010616EB0E76A1
:1016500055F1000254F1000103D5BDE88901BDE850
:101660000088BDE88901BDE80048B619524141EB48
:101670000101A3F10103704780807F7E7D7C7B7A2E
:101680007978777676757473727171706F6E6E6D2E
:101690006C6C6B6A6A6968686766666564646363D4
:1016A00062616160605F5F5E5E5D5D5C5C5B5B5A5A
:1016B0005A595958585757565655555554545353C7
:1016C00052525251515050504F4F4F4E4E4D4D4D22
:1016D0004C4C4C4B4B4B4A4A4A494949484848476D
:1016E00047474746464645454544444444434343AB
:1016F0004342424242414141002B9C4630D4770054
:101700002BD01CB54FEA370703B44FF010004FF051
:101710001001BAF1000F06D0BCF1000FDCBF40F0A1
:10172000080040F008014FF000000FBCBDE8104079
:101730000BF1010BBBF1010F08BF5FEA170722BFD6
:1017400012F1010211F101014FF0004143F10003D8
:1017500000F0004043EA00007047F9D35708D0E793
:1017600046EA064613F1400F4FEA16461FDD13F115
:10177000200FDFBF16430A46002120335B42BED054
:10178000C3F1200746EA064602FA07F74FEA164673
:1017900046EA0706C3F1200722FA03F201FA07F727
:1017A00021FA03F14FF0000342EA0702A7E746EAF5
:1017B000020646EA06464FEA164646EA0106BCBF5E
:1017C00046EA0646360C4FF000034FF000024FF099
:1017D000000194E72DE9804C9A46934670B491E855
:1017E000380007C831EA400C48BF34EA430C03D53F
:1017F000FFF7E6FDFFF780FFF0BCBDE8008C2DE9A8
:10180000804C9A46934670B491E8380007C810F0AF
:10181000804F08BF13F0804F03D100F005F8FFF7A9
:101820006BFFF0BCBDE8008C20F07F4780EA03002E
:1018300023F07F4C07EB0C03A3F57C5300F0004032
:10184000A3F1FE0392F0000F00F0B38095F0000FBB
:1018500000F077802DE901494FEA11404FEA144624
:1018600021EA004800FB06FC24EA064708FB06F6CE
:1018700007FB08F800FB07F718EB06484CEB164C83
:101880004FEA124B18EB07484FEA15464CEB17404E
:1018900022EA0B4E0BFB06FC25EA06470EFB06F67A
:1018A00007FB0EFE0BFB07F71EEB064E4CEB164C30
:1018B0004FF000061EEB074E4CEB174B18EB0B08D6
:1018C00040F1000018EB0E0B58EB000840F100004F
:1018D0008F1A4FF000013CBFC943661B14BFB5EB24
:1018E000040C00213CBFC943F61B4FEA17444EEAE3
:1018F0008E0E27EA04454FEA1C4704FB07622CEAD8
:10190000074C05FB07F70CFB05F604FB0CFC16EB7C
:10191000074642EB174216EB0C4642EB1C421BEB10
:10192000060658EB0202414146EA9E0601D5BDE893
:101930000189B619524141EB0101A3F10103BDE850
:1019400001894FEA14454FEA114724EA054621EA86
:10195000074C05FB07F406FB07F70CFB06F105FB3C
:101960000CFC11EB074144EB17444FEA124711EB13
:101970000C4144EB1C4422EA074C05FB07F206FB32
:1019800007F70CFB06F605FB0CFC16EB074642EBD3
:10199000174216EB0C4642EB1C456A1854F1000145
:1019A00048BF7047B619524141EB0101A3F1010351
:1019B000704795F0000F37D04FEA11424FEA1447B5
:1019C00021EA024624EA074C02FB07F106FB07F76F
:1019D0000CFB06F402FB0CFC14EB074441EB174133
:1019E0004FEA154714EB0C4441EB1C4125EA074C28
:1019F00002FB07F506FB07F70CFB06F602FB0CFCE7
:101A000016EB074645EB174516EB0C4645EB1C421B
:101A1000121951F1000148BF7047B619524141EB0C
:101A20000101A3F1010370474FEA14454FEA114742
:101A300024EA054621EA074C05FB07F106FB07F7F8
:101A40000CFB06F24FF0000605FB0CFC12EB074204
:101A500041EB174112EB0C4251EB1C4148BF704760
:101A6000921841EB0101A3F10103704710B5154C29
:101A7000072301220921204606F089FB0121204687
:101A800006F043FC204606F029FC00EE100AB8EEF2
:101A9000400A10EE100A60F079FA9FED0B1B53EC30
:101AA000112B60F075F99FED0A1B53EC112B60F0C0
:101AB00017F85FF0E3FF00EE100A074880ED010A17
:101AC00010BD0000002401400000000000000440A0
:101AD0000000000000FEAF40D80000201CB501212E
:101AE000074808F0FDF8684611F025F903208DF845
:101AF0000600022000906946024811F027F91CBD3B
:101B000003001800000C014010B5FFF7E7FF0121AA
:101B10001B4808F0E5F8022007F0B0FF002006F0AF
:101B200029FB184806F006FB16480021164C817068
:101B30000121C170417001700146204606F0E4FAAF
:101B4000052301220921204606F021FB012207215D
:101B5000204606F0C6FB0121204606F013FB204676
:101B600006F0EFFA204606F0F1FA0028FAD12046F6
:101B700006F0F3FA204606F0F5FA0028FAD110BD77
:101B800009001800D80000200024014070B5054667
:101B90004EF0B4FE044628464EF0D9FE0546072C0A
:101BA00046D1244CE06852F0B1FDE06A854201D193
:101BB00000F032FA206B0126854202D1267003F034
:101BC000C3F8606B854202D1667003F027FEA06BFC
:101BD00085421CD118491420184A08808220488068
:101BE000506000201060C880154948600870087275
:101BF00000F096FA1348006858F07CFE124800681E
:101C000058F078FE1148006858F074FEA670E06B3A
:101C1000854201D103F042FB206C854201D103F0E3
:101C200013FAE06C854203D1BDE870405AF0ACB9BC
:101C300070BD0000F8020020CC030020D403002077
:101C400054590120B4030020B8030020BC03002035
:101C500070B505464EF052FE044628464EF077FE1B
:101C6000072C17D10C49096988420FD10B4800682D
:101C700052F04CFD0A49002008700A4801214173C6
:101C800043890289C18808A0FEF710FCBDE87040B6
:101C900001F006B870BD000084030020100300208E
:101CA000F902002044590120483D2564094D3D2595
:101CB0006409533D25640A00FEE700002DE9F04168
:101CC0004FF400741025084E084F06E0204608F037
:101CD0003FF9356038684CF001FB204608F048F9C0
:101CE0000028F3D1BDE8F08110080140EC0200208B
:101CF00010B5094C0021204608F016F907490020CC
:101D0000087040F20441204608F013F92046BDE86F
:101D10001040012108F008B95800024010000020CE
:101D20002DE9F0410E460546144601214FF4A0105E
:101D300007F0D6FF134F384608F062F9124808F052
:101D4000FAF812481021012204800F48C0E9005619
:101D5000018144810021017342738173C173017455
:101D6000032141740146384608F014F90022114657
:101D70000D205AF02BF83846BDE8F041012202212F
:101D800008F036B930000240107A0020B20000207E
:101D90002DE9F0410E460546144601214FF4A010EE
:101DA00007F09EFF144F384608F02AF9134808F050
:101DB000C2F8124800210122C0E900564481018185
:101DC0000274C1738173427301730321417401462C
:101DD000384608F0DFF8002211460F2059F0F6FFD0
:101DE00001220221384608F003F93846BDE8F041E7
:101DF000012108F099B8000058000240E80F0020C7
:101E000010B5012903D0002302292BD000E00123C3
:101E10000024234303D00C31401EC9B280B24B1CB6
:101E200002EB410103EB43030524B3FBF4F364220B
:101E3000B0FBF2F21944014401EB9001891A4FF40E
:101E4000C872B0FBF2F00844072190FBF1F201FBED
:101E50001200C0B2072808D2DFE800F006080A0C1A
:101E60000E1012000124D4E7002010BD012010BD87
:101E7000022010BD032010BD042010BD052010BDA0
:101E8000062010BD7047000030B5114C00234FF004
:101E9000E0211AE0A268322805D932256A434A6156
:101EA000323880B202E05043486100208B610A69F9
:101EB00042F001020A610A69D50701D0D203FAD5BE
:101EC0000A6922F001020A618B610028E2D130BD6B
:101ED0001000002010B510200EF040FF00280CD09C
:101EE0001021064810F089FF10B905A0FEF7DEFAB0
:101EF000BDE8104010200EF023BF10BD000C0140C3
:101F00004B45595F545255450D0A000010B520202D
:101F10000EF024FF0F4C50B12021204610F06DFF31
:101F200010B90DA0FEF7C2FA20200EF009FF4020E4
:101F30000EF014FF00280CD04021204610F05DFF69
:101F400010B908A0FEF7B2FABDE8104040200EF02C
:101F5000F7BE10BD000C01404B45595F4C4546543F
:101F60000D0A00004B45595F52494748540D0A007D
:101F700070B5204CE06849F04DFFE0621E484BF020
:101F800087F901460022E06A55F04CFC32227821A4
:101F9000E06A55F036FBE06A50F02CFB0546002263
:101FA000164955F0A2FCA17911B1012902D005E032
:101FB00013A100E014A1284651F08BF900231A4622
:101FC0000821284651F0A8FFE06A4FF0FFF80546C7
:101FD0000F494FF0E1FE00231A460721284651F031
:101FE0009BFFE06ABDE8704000231A46094951F0A2
:101FF000C7BE0000F8020020878A80000404002089
:10200000E58D95E8AF8D0000456E676C69736800DB
:10201000C45508088D1B000810B5164C0120E0704F
:1020200056F082FA52F066FB5022A021206155F052
:10203000E8FA206952F0E7F900221146206955F0CC
:1020400049FC0021206955F0C8FA1021206952F09E
:10205000C5FA206900F06EFC206900F0AFFB206932
:1020600000F028FC206901F023F82069BDE8104049
:1020700000F074BEF802002070B5204CE06849F012
:10208000C9FEA0631E484BF003F901460022A06B75
:1020900055F0C8FB28227821A06B55F0B2FAA06B4E
:1020A00050F0A8FA05460022164955F01EFCA17909
:1020B00011B1012902D005E013A100E014A12846C6
:1020C00051F007F900231A460821284651F024FF51
:1020D000A06B4FF07BF805460F494FF05DFE0023E3
:1020E0001A460721284651F017FFA06BBDE8704043
:1020F00000231A46094951F043BE0000F8020020AF
:10210000878A800004040020E6B8B8E6888F0000C3
:1021100047616D6573000000984F08088D1B00082B
:1021200010B5134C0420E07056F0FEF952F0E2FABC
:102130005022A021E06155F064FAE06952F063F9A1
:10214000E06900F017FCE06900F0AEFCE06900F027
:1021500075FCE06900F00EFDE06900F0CDFCE0697F
:1021600000F026FCE069BDE8104000F079BE0000F8
:10217000F8020020FEE700001CB501210B4807F023
:10218000AFFD684610F0D7FD01208DF80700002054
:102190008DF804008DF806007020009028208DF83E
:1021A00005006946024810F0D1FD1CBD030018006F
:1021B000000C014010B51021034810F01EFE08B1BC
:1021C000002010BD0A2010BD000C01402DE9F04197
:1021D0001D4C4D1C00F11A0794F800C05C1C02F164
:1021E0001A06BCF1000F1ED0BCF1010F1BD0471C1A
:1021F000541C193503F11A062A2000F0B7FAB8B2B8
:1022000000F0AAFAA0B200F0A7FA2B2000F0AEFA74
:10221000A8B200F0A1FAB0B200F09EFABDE8F04119
:102220002C2000F0A3BA2A2000F0A0FAB8B200F0E7
:1022300093FAB0B200F090FA2B2000F097FAA8B20F
:1022400000F08AFAA0B2E7E7B000002010B514460B
:102250000B460246FFF7BAFF2046BDE8104000F0EB
:102260007BBA2DE9F04780461F46581E83B21646BA
:10227000501E82B20C464046DDF82090FFF7A6FFC4
:102280000AE0454604E0484600F066FA6D1CADB22F
:10229000B542F8D3641CA4B2BC42F2D3BDE8F087C7
:1022A0007CB50121124807F01BFD11480121401C9B
:1022B00007F016FD684610F03EFD01208DF807007E
:1022C00010208DF8060000208DF804000420094D30
:1022D0004FF4AC748DF8050000946946284610F060
:1022E00035FD01222146284610F020FD7CBD00006E
:1022F000020018000008014070B502F061FD0A22DA
:102300004FF00761A04803F0DFFB9F48FEF707FA94
:102310009E4C10F0FF00207001D103202070FFF7C9
:10232000BFFF9B4D00224021284610F0FFFC642097
:10233000FFF7AAFD01224021284610F0F7FC642097
:10234000FFF7A2FD01221102284610F0EFFC6420E5
:10235000FFF79AFD112000F009FA7820FFF794FDAD
:10236000B12000F003FA052000F014FA3C2000F040
:1023700011FA3C2000F00EFAB22000F0F7F9052027
:1023800000F008FA3C2000F005FA3C2000F002FAC8
:10239000B32000F0EBF9052000F0FCF93C2000F040
:1023A000F9F93C2000F0F6F9052000F0F3F93C20A3
:1023B00000F0F0F93C2000F0EDF9B42000F0D6F97F
:1023C000032000F0E7F9C02000F0D0F9AB2000F0C6
:1023D000E1F90B2000F0DEF9042000F0DBF9C12068
:1023E00000F0C4F9C52000F0D5F9C22000F0BEF914
:1023F0000D2000F0CFF9002000F0CCF9C32000F050
:10240000B5F98D2000F0C6F96A2000F0C3F9C420A8
:1024100000F0ACF98D2000F0BDF9EE2000F0BAF923
:10242000C52000F0A3F90F2000F0B4F9E02000F07F
:102430009DF9072000F0AEF90E2000F0ABF908205E
:1024400000F0A8F9072000F0A5F9102000F0A2F98B
:10245000072000F09FF9022000F09CF9072000F00F
:1024600099F9092000F096F90F2000F093F9252042
:1024700000F090F9362000F08DF9002000F08AF984
:10248000082000F087F9042000F084F9102000F003
:1024900081F9E12000F06AF90A2000F07BF90D20B3
:1024A00000F078F9082000F075F9072000F072F9C3
:1024B0000F2000F06FF9072000F06CF9022000F007
:1024C00069F9072000F066F9092000F063F90F2090
:1024D00000F060F9252000F05DF9352000F05AF990
:1024E000002000F057F9092000F054F9042000F012
:1024F00051F9102000F04EF9FC2000F037F980204F
:1025000000F048F93A2000F031F9052000F042F9D6
:10251000362000F02BF9207878B301282FD002283C
:102520002FD0A82000F036F9212000F01FF9292033
:1025300000F01CF92A2000F019F9002000F02AF917
:102540001A2000F027F9002000F024F9692000F09B
:1025500021F92B2000F00AF9002000F01BF90120DE
:1025600000F018F9002000F015F9A02000F012F991
:10257000BDE870402C2000F0F9B80820D2E7C82050
:10258000D0E77820CEE70000FC790020B0000020E2
:10259000000801402DE9FF4F81B00446DDF83C9072
:1025A00000904FEA59074FF00008780700D001204B
:1025B00000EBD70000FB09FB203AD0B20390029851
:1025C00002994844401E83B2E019401E82B2204660
:1025D000FFF7FCFD002553E0B9F10C0F2AD0B9F14B
:1025E000100F2ED0B9F1180F2ED0B9F1200F49D10C
:1025F0002749039801EB8010002610F805A01098D9
:1026000000284FF0010000FA06F000EA0A0022D08C
:1026100020B12046049A0299FFF718FE641C009826
:10262000A4B2201AB84225D10298009C401C80B266
:10263000029023E00398174900EB400001EB800073
:10264000DAE71549039803E00398144900EB4000CA
:1026500001EB0010D0E708B1049800E00E9800F0FC
:102660007BF808F10100C0B2B0FBF7F1804607FB30
:10267000118050B1761CF6B2082EC0D36D1CADB2DD
:102680005D45A9D305B0BDE8F08F4FF00008F5E730
:10269000F23C0608BE20060832250608222B060852
:1026A0002DE9FF4F83B00026DDE911B81D468246B3
:1026B0004FEA58073446B1462CE0281B401EC1B2F1
:1026C0000A2059F06FFB0599B1FBF0F00A21B0FB2D
:1026D000F1F201FB120026B9691E8C4201DA58B1F1
:1026E00001263030C2B204FB07A0CDF800B0CDE91E
:1026F000018980B2109B08E0CDF800B004FB07A070
:10270000CDE90189109B80B220220499FFF742FF96
:10271000641CE4B2AC42D0D307B0BDE8F08F2DE921
:10272000FE4F9946DDE90D6714468A460546DDF8F9
:1027300030800CE0CDF800804B4651462846CDE96C
:102740000167FFF727FF05EB560085B2641C22786E
:10275000002AEFD1BDE8FE8F10B50446000A00F054
:1027600019F8E0B2BDE8104000F014B870B5084C9C
:10277000054600220821204610F0D8FA284600F02D
:1027800009F82046BDE870400122082110F0CEBAB9
:102790000008014070B5074910240C60064DE86040
:1027A000022128465BF023FB0028F9D00148001FD6
:1027B000046070BD14080140003001402DE9F04173
:1027C000074649F027FB304C304EA06030464AF0B7
:1027D000DFFD01460022A06855F024F8A0684FF004
:1027E00009FF0546012150F067FD29A1284650F058
:1027F00070FD284651F01BFE0E223221A06854F0D5
:1028000000FF00220221A06855F064F80A235A4212
:102810000421A06851F080FB384649F0FBFAE060E3
:1028200030464AF0B5FD01460022E06854F0FAFF58
:10283000E0684FF0DFFE0546012150F03DFD18A194
:10284000284650F046FD284651F0F1FD0E22322177
:10285000E06854F0D6FE00220221E06855F03AF814
:102860000A231A460621E06851F056FB00231A4657
:102870000F49A06851F084FAE068BDE8F0410023F8
:102880001A460B4951F07CBA1C040020DCDCDC0049
:1028900023303030303030204C4546542300000087
:1028A0002330303030303020524947485423000024
:1028B00075AB040870B505464FF09CFE124C002223
:1028C0001249206155F011F811A1206950F038FD2E
:1028D00000236FF009020121206951F01DFB2846F9
:1028E0004FF088FE606111A1626850F029FD0D2350
:1028F00000220521606951F00FFBE068BDE87040DF
:10290000002207214EF028B81C04002004040020F7
:102910003C6163743E76692E0AE8A18CE58AA82C96
:10292000E8A18CE58AA8E79A842E00004E3D256434
:102930000000000010B54EF049FC04460A4800783B
:1029400010B1012802D005E0084900E008492046FE
:102950004FF022FA20466FF00E02BDE810401346F9
:10296000012151F0D9BA0000FF02002024410908DA
:1029700018DD080870B5054600226421094857F0A3
:10298000DFFE094C606228464EF020FC0749E060FB
:102990004FF002FAE068BDE870400022822154F056
:1029A000EEBD0000F9BB0508980300200C7908086B
:1029B00070B505460022C8210F4857F0C1FE0F4CE4
:1029C000E06128464EF002FC0D4960604FF0E4F9EA
:1029D00028464EF0FBFB0B49A0604FF0DDF91A22B0
:1029E0008221606854F0CBFDA068BDE870401A22D7
:1029F0004FF47A7154F0C3BD39BC05089803002028
:102A000030700808E473080810B54DF077FF072808
:102A100010D1094C00212088083802B2A4F13400FA
:102A20002280006854F0ABFDB4F90000042801DCFA
:102A30000120A08010BD0000CC03002070B549F03B
:102A4000E9F9144C0C223C21606154F0DAFD6FF07E
:102A50000C030D220321606951F05EFA0022C821A7
:102A6000606954F031FF60694FF0C4FD05460022F3
:102A7000094954F03AFF09A1284650F02AFC28469B
:102A800051F0CBFC6069BDE8704000231A4605494F
:102A900051F076B99803002098A306085245534593
:102AA00054210000ED31000810B50446002154F017
:102AB00094FD1021204651F091FD204650F0B6FDC6
:102AC00002220B4950F07AFE20464EF07FFB084C64
:102AD00008492C3C20604FF05FF904F134000021DC
:102AE000B0F900202068BDE8104054F048BD000057
:102AF000C40300207078080870B505460022C8217C
:102B0000174857F01DFE174C2062284649F082F9FD
:102B10000C222821206154F074FD0A230022052193
:102B2000206951F0F9F900220221206954F0D2FE07
:102B300020694FF05FFD054600220B4954F0D5FE99
:102B40000AA1284650F0C5FB284651F066FC2069D2
:102B5000BDE8704000231A46054951F011B9000044
:102B6000BDBB05089803002098A306085550000037
:102B7000092A000810B54FF03DFD0B4C0A236FF0F9
:102B80000B020421A06151F0C7F900220749A06996
:102B900054F0ABFE04F1340005A1B0F90620A069A1
:102BA000BDE8104050F0CCBB9803002098A3060865
:102BB00053636F72653A25640000000010B54EF053
:102BC000A1F803498862BDE810404EF08DB90000BD
:102BD000F80200200248816A024800684FF01FBBDB
:102BE000F8020020F402002010B54DF087FE0728FF
:102BF00010D1094C6079401CC0B26071012809D124
:102C0000606C51F083FDA06C51F080FDBDE8104078
:102C100000F046B810BD0000F802002010B5FFF724
:102C2000CDFF0A224FF0F261174802F04DFF16481F
:102C3000FDF775FD154C0A224FF0F461A0711448A0
:102C400002F042FF1248FDF76AFDE0710A224FF0E0
:102C50000161104802F038FF0E48FDF760FD0E4993
:102C600020810A2208700B484FF00D610A3002F0F3
:102C70002BFF08480A30FDF752FD08490860BDE8FF
:102C8000104048F0FFBF0000B8590120F8020020B2
:102C9000C2590120305901201C040020A00400204A
:102CA00010B555F041FC51F025FD294CE060294854
:102CB0004AF0EEFA01460022E06854F0B3FD5022DB
:102CC000A021E06854F09DFCE06851F09CFB0121DC
:102CD000E06854F00DFC00230B221F49E06851F01E
:102CE0004FF800220521E06854F0F4FD0022012194
:102CF000E06854F0A9FD0C21E06854F04BFC03217E
:102D0000E06854F05FFC0021E06854F066FC0022AB
:102D10000B21E0684DF020FEFFF72AF901F0C0FF1B
:102D200002F000FDFFF7A8F902F066FA02F03AF9A6
:102D300005F0F0FA0121E06851F050FC0021E06854
:102D400052F060F8BDE81040002154F0EDBA0000E8
:102D5000F8020020F0D2C0003FD8050870B549F055
:102D600059F8184C0C222421A06154F04AFC00228E
:102D70000521A06954F0AEFD6FF00C02134601214D
:102D8000A06951F0C9F810484AF002FB0146002240
:102D9000A06954F047FDA0694FF02CFC05460121C5
:102DA00050F08AFA09A1284650F093FA284651F0CB
:102DB0003EFBA069BDE8704000231A46064950F06A
:102DC000DFBF00001C040020878A800023303030E1
:102DD000303030203C2300008147000870B549F0B6
:102DE00019F8194C0C222421E06154F00AFC00224D
:102DF0000521E06954F06EFD6FF00C0213460121CD
:102E0000E06951F089F811484AF062FA014600225F
:102E1000E06954F007FDE0694FF0ECFB0546012145
:102E200050F04AFA0AA1284650F053FA00232846E7
:102E30001A46092151F070F8E069BDE8704000239E
:102E40001A46064950F09CBF64030020878A800020
:102E500023303030303030203C2300004147000820
:102E600038B548F0D7FF244C0C222421A06254F03E
:102E7000C8FB00220521A06A54F02CFD6FF00C0263
:102E800013460121A06A51F047F8BDF80000042163
:102E900061F30200ADF80000BDF80010102060F3EF
:102EA000C70189B260F30C21ADF80010BDF8000035
:102EB000022161F34F30ADF8000080B20090BDF800
:102EC00000100022A06A54F0ADFCA06A4FF092FB03
:102ED0000546012150F0F0F908A1284650F0F9F913
:102EE000284651F09AFAA06A01B00023BDE83040AC
:102EF0001A46054950F044BF980300202330303073
:102F0000303030203C230000B947000870B548F04D
:102F100081FF184C0C222421606154F072FB0022C6
:102F20000521606954F0D6FC6FF00C0213460121B4
:102F3000606950F0F1FF10484AF00AFA0146002299
:102F4000606954F06FFC60694FF054FB0546012145
:102F500050F0B2F909A1284650F0BBF9284651F0CB
:102F600061FA6069BDE8704000231A46064950F0D6
:102F700007BF0000DC030020878A80002330303048
:102F8000303030203C2300001D48000870B548F068
:102F900041FF194C0C222421206054F032FB002206
:102FA0000521206854F096FC6FF00C0213460121B5
:102FB000206850F0B1FF11484AF02AFA0146002279
:102FC000206854F02FFC20684FF014FB05460121C7
:102FD00050F072F90AA1284650F07BF900232846E8
:102FE0001A46092150F098FF2068BDE87040002380
:102FF0001A46064950F0C4BEAC040020878A8000FF
:1030000023303030303030203C2300005548000859
:103010002DE9F041224C074600204FF0FF1604F145
:103020000C05A060384648F0F5FE606030464AF076
:10303000EFF901460022606854F0F4FB3C220121C4
:10304000606854F0DEFA00221146606854F042FCD9
:10305000A068822135F91020606854F090FA0023AE
:103060001A461049606850F08BFEA068401CA060B2
:103070001E28D7DB38464FF0BDFA044600220A4925
:1030800054F033FC00236FF009020121204650F078
:1030900043FF2046BDE8F041044950F01AB9000052
:1030A000AC040020A1480008040400200014002003
:1030B00070B52DED028B4FF09DFA374CE061FEF7B5
:1030C000D5FC364D28685EF061FF9FED358B53ECE3
:1030D000182B5EF05DFE41EC100B33A153EC102B6E
:1030E0003348FDF7EFF928685EF050FF53EC182BDA
:1030F0005EF04EFE41EC100B2EA053EC102BFDF7B2
:10310000D5F928685EF042FF53EC182B5EF040FEC4
:103110005EF0B4FC00EE100ADFED290A85ED000A2E
:1031200020EE200ABDEEC00A10EE100A2062B0F5B3
:10313000CD7F02DB1E4A23A11DE0A0F5C8710A293C
:1031400002D21B4A21A116E0A0F281110F2902D25E
:10315000174A20A10FE0A0F277110A2902D2144ADF
:103160001EA108E0A0F5B4710F2902D3B0F5B47F19
:1031700004DA0F4A1BA1E06950F0E2F85DF0ECFFC1
:10318000E0690022BDEC028B6FF00C03BDE87040DB
:10319000022150F0C1BE00001C040020DC00002011
:1031A0003333333333330940252E32665600000063
:1031B00090590120566F6C3D252E32660D0A000095
:1031C0000000C842EF89802573000000EF89812547
:1031D00073000000EF89822573000000EF898325CA
:1031E00073000000EF8984257300000010B54DF0D6
:1031F00085FB072814D10B480022822102700A485F
:10320000A0F1340482804180C28008A1A06950F0FE
:1032100097F820681422BDE81040002154F0AFB99F
:1032200010BD000054590120CC03002053636F727D
:10323000653A2564000000002DE9F04105464DF097
:103240005DFB044628464DF082FB0546072C32D133
:103250001A4E707801282ED1A6F118044FF40037C9
:10326000A06885420AD10020B0704FF47F004AF078
:103270006FF801463A46606854F0D4FAE068854237
:103280000AD10120B0704FF47F404AF061F8014646
:103290003A46606854F0C6FA206985420BD1022094
:1032A000B070FF204AF054F801463A466068BDE825
:1032B000F04154F0B7BABDE8F0810000F4030020FB
:1032C0002DE9F041054648F0A5FD3D4CA06028469B
:1032D00048F0A0FDE060284648F09CFD20610F22E8
:1032E0001E21A06854F08DF90F221E21E06854F0D1
:1032F00088F90F221E21206954F083F94FF47F00D2
:103300004AF026F801460022A06854F08BFA4FF4E8
:103310007F404AF01DF801460022E06854F082FA2E
:10332000FF204AF015F801460022206954F07AFA8D
:1033300000235D1F2A460221A06850F0EDFD052301
:103340002A460921E06850F0E7FD0A232A460521B4
:10335000206950F0E1FDA0684FF04CF90746E068A5
:103360004FF048F9064620694FF044F9054615A18B
:1033700038464FF0AEFF14A130464FF0AAFF13A11C
:1033800028464FF0A6FF384651F04CF8304651F031
:1033900049F8284651F046F800231A460C49A0681F
:1033A00050F0EEFC00231A460949E06850F0E8FCB2
:1033B0002069BDE8F04100231A46054950F0E0BC01
:1033C000DC03002052000000470000004200000023
:1033D0003932000870B555F0DBF81B4C3C2228212F
:1033E000606054F00EF900211922606848F0A8FBD3
:1033F000164849F0ADFF01460022606854F012FA09
:103400004FF47F0049F0A4FF01464FF400352A46EF
:10341000606854F007FA4FF440320021606854F0BD
:1034200053FA052300220821606850F075FD002240
:103430000521606854F04EFA2A466068BDE8704085
:10344000002154F047BA0000DC03002013458B0034
:1034500070B548F0DFFC184C28221146206054F06B
:10346000D0F805235A420721206850F055FD134833
:1034700049F06EFF01460022206854F0D3F9002283
:103480001421206854F026FA20684FF0B3F805465E
:1034900000220B4954F029FA0AA128464FF019FFDF
:1034A000284650F0BFFF2068BDE8704000231A4650
:1034B000054950F065BC0000DC030020E1694100D3
:1034C0006C450808EF809100CD3400082DE9F041EB
:1034D0004DF014FA072849D1254C00254FF001087A
:1034E0002078A4F11806401CC0B22070042802D332
:1034F00084F8008022E01F4F03280AD165707D7395
:103500004FF0FF1049F024FF01460022306854F0CC
:1035100089F9207802280ED1002265707D7311464A
:10352000104601F0D3F9144849F012FF0146002279
:10353000306854F077F92078012817D1FF2284F8F9
:103540000180E5701146104601F0C0F9FF212A46BE
:10355000706848F03EFB4FF6FB7049F0F9FE0146FB
:103560003068BDE8F041002254F05CB9BDE8F0815C
:10357000F403002044590120E169410070B54DF089
:10358000BDF91C2827D114480025144C4178491C4A
:10359000C9B24170022901D3457003E011B101297C
:1035A00006D00BE00EA1806C4FF0CAFE257005E03E
:1035B0000CA1806C4FF0C4FE0120207022780AA17B
:1035C0000A48FCF77FFFBDE870400A224FF0F46123
:1035D000064802F0BBBA70BD40040020FF02002084
:1035E000504146005453000025640000C259012098
:1035F00070B54DF083F91C2825D113480025134CD4
:103600000178491CC9B20170022901D3057001E09B
:10361000012912D00EA1406C4FF092FE01202070C3
:1036200022780CA10C48FCF74DFFBDE870400A223F
:103630004FF0F261084802F089BA08A1406C4FF0DF
:103640007FFE2570ECE770BD40040020FE020020E4
:103650004500000025640000B85901204300000027
:1036600010B54DF04BF91C2823D112484FF00764D8
:10367000026D521C0265022A02DB0021016512E084
:103680008AB1012A15D10CA1C06C4FF059FE02225B
:103690000AA10B48FCF716FF2146BDE810400A229C
:1036A000074802F053BA07A1C06C4FF049FE03224D
:1036B000EEE710BD400400203336300025640000E2
:1036C000067A00203138300070B54DF017F91C280B
:1036D0001ED11848184C4FF0C865826D521C826587
:1036E000022A02DB0021816513E092B1012A0FD189
:1036F00012A1406D4FF024FE022211A11148FCF7E7
:10370000E1FE0A2229460F4802F020FA022020702A
:1037100070BD0DA1406D4FF013FE012208A10948B4
:10372000FCF7D0FE0A222946064802F00FFA0120D3
:10373000EDE7000040040020D6000020534F570062
:1037400025640000247A0020464C570070B548F0EC
:1037500061FB154C0A228C21A06053F052FF00221D
:103760001146A06854F0B6F8104849F031FE014601
:103770000022A06854F056F8E12300220521A06839
:1037800050F0CAFBA0684EF035FF054608A14FF087
:10379000A0FD284650F050FEA068BDE87040002310
:1037A0001A46054950F0ECBA40040020878A800090
:1037B0004261636B000000006D4F000810B51022DD
:1037C000042156F023FA184C00220221606054F0C4
:1037D00081F850229B21606853F013FF6FF00C03B7
:1037E0000D220321606850F097FB10A1606856F02D
:1037F000EDF80021E06053F0F0FEE068FFF7A6FF6F
:10380000E06800F095FAE06800F012F8E06800F077
:1038100005F9E06800F07EF9E06800F085F8E068FE
:10382000BDE8104000F0F2B9400400205365740078
:1038300070B5054655F0F0FE044628464EF0DAFE17
:10384000064600221146204654F044F84FF4003258
:103850000021204654F03EF84FF44032002120462B
:1038600054F038F80A221E21204653F0CAFE8A235B
:103870006FF013020321204650F04EFB00231A463E
:103880002149204650F07CFA00222049304654F06D
:103890002CF81FA130464FF01CFD8C236FF009025D
:1038A0000121304650F038FB284648F0B3FA0A228E
:1038B0000446114653F0A5FE00221146204654F05E
:1038C00009F8164849F084FD01460022204653F0CD
:1038D000A9FF8A2300220221204650F01DFB284622
:1038E0004EF088FE0E4C00220849606453F0FDFF44
:1038F0000CA1606C4FF024FD606CBDE870408A2321
:103900000A22032150F008BBF135000898A30608ED
:103910004C616E677561676500000000878A8000F2
:10392000400400204500000070B5054655F074FEC7
:10393000044628464EF05EFE06460022114620460A
:1039400053F0C8FF4FF400320021204653F0C2FF6D
:103950004FF440320021204653F0BCFF0A221E21C2
:10396000204653F04EFEB7236FF01302032120468A
:1039700050F0D2FA00231A462149204650F000FAAE
:1039800000222049304653F0B0FF1FA130464FF0CF
:10399000A0FCB7236FF009020121304650F0BCFAB9
:1039A000284648F037FA0A220446114653F029FE09
:1039B00000221146204653F08DFF154849F008FDBE
:1039C00001460022204653F02DFFB723002202219A
:1039D000204650F0A1FA28464EF00CFE0D4C002275
:1039E0000849606553F081FF0BA1606D4FF0A8FCA2
:1039F000606DBDE87040B7230A22032150F08CBAF5
:103A0000C936000898A30608576F726400000000CA
:103A1000878A800040040020464C570070B5054658
:103A200055F0FAFD044628464EF0E4FD0646002215
:103A30001146204653F04EFF4FF40032002120463D
:103A400053F048FF4FF440320021204653F042FF2C
:103A50000A221E21204653F0D4FD99236FF0130251
:103A60000321204650F058FA00231A4621492046E7
:103A700050F086F900222049304653F036FF1FA14E
:103A800030464FF026FC99236FF0090201213046A1
:103A900050F042FA284648F0BDF90A220446114681
:103AA00053F0AFFD00221146204653F013FF164895
:103AB00049F08EFC01460022204653F0B3FE9923C4
:103AC00000220221204650F027FA28464EF092FDAF
:103AD0000E4C00220849A06453F007FF0CA1A06C13
:103AE0004FF02EFCA06CBDE8704099230A22032100
:103AF00050F012BA7D35000898A306086261636B26
:103B000067726F756E640000878A80004004002031
:103B10005041460070B5054655F07EFD04462846E6
:103B20004EF068FD064600221146204653F0D2FEB4
:103B30004FF400320021204653F0CCFE4FF44032C7
:103B40000021204653F0C6FE0A221E21204653F0D3
:103B500058FDA8236FF013020321204650F0DCF932
:103B600000231A462149204650F00AF90022204934
:103B7000304653F0BAFE1FA130464FF0AAFBA823EF
:103B80006FF009020121304650F0C6F9284648F08E
:103B900041F90A220446114653F033FD0022114632
:103BA000204653F097FE164849F012FC01460022C9
:103BB000204653F037FEA82300220221204650F071
:103BC000ABF928464EF016FD0E4C00220849E06481
:103BD00053F08BFE0CA1E06C4FF0B2FBE06CBDE843
:103BE0007040A8230A22032150F096B961360008DC
:103BF00098A30608726F746174696E670000000014
:103C0000878A800040040020313830002DE9F843D5
:103C100080464EF0EFFC044600223B4953F065FE1F
:103C20003AA120464FF055FBC62300220221204630
:103C300050F072F9404654F047FF374C4FF4E172B0
:103C40000021E06555F0BBF801220321E06D55F03D
:103C50007BF8E06D55F0D8F81E223721E06D53F067
:103C6000D0FCD52300220221E06D50F055F9D4E9B3
:103C7000170155F0B2F8404648F0CCF81E22054630
:103C8000114653F0BEFC00260096731F11222846F1
:103C9000E16D50F04FF9002220A1284653F0CEFDEF
:103CA0001F4F384649F094FB01460022284653F046
:103CB000B9FD00231A461B49284650F061F84046DA
:103CC00048F0A8F81E220546114653F09AFC0096CB
:103CD000052314222846E16D50F02CF9002212A190
:103CE000284653F0ABFD384649F072FB01460022EE
:103CF000284653F097FD01B02846BDE8F043002365
:103D00001A460A4950F03CB898A3060850726F77DB
:103D1000657220536574000040040020EF81A70005
:103D2000878A8000158B0508EF81A800018D0508A2
:103D30002DE9F14F82B0029848F06CF8FE4D044630
:103D4000284649F045FB01460022204653F06AFD13
:103D500000221146204653F0BDFD0A229B21204639
:103D600053F04FFC6FF00908434600220221204621
:103D700050F0D2F8029854F00BFCF04C0E22322195
:103D8000206153F03EFC18220021206954F05EFEB1
:103D900003236FF013094A461946206950F0BCF816
:103DA00002984EF027FC82464FF4403B5A460021D1
:103DB000206953F089FD00221146206953F08AFDE5
:103DC0004FF400373A460021206953F083FD28461E
:103DD00049F0FEFA01463A46206953F023FD0023DC
:103DE0001A46D74920694FF0CBFF0022D5495046EB
:103DF00053F07BFDD44E307810B1012802D00AE098
:103E0000D2A105E00022D349504653F06EFDD2A165
:103E100050464FF05EFA012342461946504650F094
:103E20007BF802984EF0E6FB0022CD49A06253F0E9
:103E30005CFD206954F008FE0246CAA1A06A4FF05A
:103E40007FFA052300220321A06A50F065F802984A
:103E500047F0E0FF82460E220A2153F0D2FB0022F7
:103E60001146504653F036FD284649F0B1FA014656
:103E70000022504653F0D6FC03236FF00E020221BD
:103E8000504650F049F8029854F082FB0E2232213D
:103E9000606153F0B6FB3C220021606954F0D6FD0E
:103EA00016234A460321606950F036F802984EF016
:103EB000A1FB00905A460021606953F005FD0022E5
:103EC0001146606953F006FD3A460021606953F0DF
:103ED00001FD284649F07CFA01463A46606953F0F4
:103EE000A1FC00231A46964960694FF049FF002261
:103EF0009449009853F0F9FC307810B1012802D0B1
:103F00000AE099A105E000229249009853F0EDFCE7
:103F100097A100984FF0DDF91423C24642460121D3
:103F200000984FF0F9FF02984EF064FB00228C4994
:103F3000E06253F0DAFC606954F086FD024689A124
:103F4000E06A4FF0FDF9182300220321E06A4FF0E8
:103F5000E3FF029847F05EFF0E220A21009053F023
:103F600050FB00221146009853F0B4FC284649F05B
:103F70002FFA01460022009853F054FC6FF00E080F
:103F800016234246022100984FF0C6FF029854F0D3
:103F9000FFFA0E223221A06153F033FB3C220021B4
:103FA000A06954F053FD27234A460321A0694FF02E
:103FB000B3FF02984EF01EFB00905A460021A06904
:103FC00053F082FC00221146A06953F083FC3A466C
:103FD0000021A06953F07EFC284649F0F9F901461A
:103FE0003A46A06953F01EFC00231A465449A069C2
:103FF0004FF0C6FE00225349009853F076FC30780B
:1040000010B1012802D00AE05BA105E0002251496D
:10401000009853F06AFC5AA100984FF05AF92523F2
:104020005246012100984FF077FF02984EF0E2FAD5
:1040300000224B49206353F058FCA06954F004FD62
:10404000024648A1206B4FF07BF92923002203216F
:10405000206B4FF061FF029847F0DCFE0E220A2130
:10406000009053F0CEFA00221146009853F032FC33
:10407000284649F0ADF901460022009853F0D2FBE2
:1040800027234246022100984FF046FF029854F041
:104090007FFA0E223221E06153F0B3FA3C22002174
:1040A000E06954F0D3FC38236FF013020321E06978
:1040B0004FF032FF02984EF09DFA00905A460021D0
:1040C000E06953F001FC00221146E06953F002FC64
:1040D0003A460021E06953F0FDFB284649F078F9A3
:1040E00001463A46E06953F09DFB00231A46144905
:1040F000E0694FF045FE00221249009853F0F5FBAD
:10410000307810B1012802D00AE01FA105E000229A
:104110001F49009853F0E9FB1EA100984FF0D9F811
:104120003623D1465246012100984FF0F5FE029801
:104130004EF060FA002231E0878A800040040020BF
:104140008150000804040020FE020020E5B08FE644
:1041500097B62C00A8050708486F7572000000008C
:1041600098A3060825640000E58886E9929F2C0044
:104170004D696E7574650000E7A7922C0000000081
:104180005365636F6E640000E5B9B42C0000000055
:10419000BC4307085965617200000000B6496063BE
:1041A00053F0A3FBE06954F04FFC00F5FA62AFF264
:1041B0004C01606B4FF0C4F83A230A220321606B74
:1041C0004FF0AAFE029847F025FE82460E220A21F1
:1041D00053F017FA00221146504653F07BFB284655
:1041E00049F0F6F801460022504653F01BFB3823F5
:1041F0004246022150464FF08FFE029854F0C8F913
:104200000E223221206253F0FCF90C220021206A98
:1042100054F01CFC49236FF013020321206A4FF075
:104220007BFE02984EF0E6F900905A460021206A83
:1042300053F04AFB00221146206A53F04BFB3A46EA
:104240000021206A53F046FB284649F0C1F8014698
:104250003A46206A53F0E6FA00231A468749206A54
:104260004FF08EFD00228649009853F03EFB3078D7
:1042700010B1012802D00AE082A105E000228349A2
:10428000009853F032FB82A100984FF022F84723A8
:10429000CA464A46012100984FF03EFE02984EF071
:1042A000A9F900227449A06353F01FFB206A54F05F
:1042B000CBFB0246AFF25411A06B4FF041F84B23F9
:1042C0000A220321A06B4FF027FE029847F0A2FDBF
:1042D00081460E220A2153F094F9002211464846E5
:1042E00053F0F8FA284649F073F801460022484690
:1042F00053F098FA49234246022148464FF00CFEFB
:10430000029854F045F90E223221606253F079F997
:104310001F220021606A54F099FB5A236FF01302A8
:104320000321606A4FF0F8FD02984EF063F9814670
:104330005A460021606A53F0C7FA00221146606AAB
:1043400053F0C8FA3A460021606A53F0C3FA28468F
:1043500049F03EF801463A46606A53F063FA00239A
:104360001A464649606A4FF00BFD00224449484610
:1043700053F0BBFA307810B1012802D00AE046A110
:1043800005E000224149484653F0AFFA44A14846AF
:104390004EF09FFF58235246012148464FF0BCFD86
:1043A00002984EF027F900223349E06353F09DFA5A
:1043B000606A54F049FB0246AFF25821E06B4EF0C0
:1043C000BFFF5C230A220321E06B4FF0A5FD02989A
:1043D00047F020FD07460E220A2153F012F9002271
:1043E0001146384653F076FA284648F0F1FF014668
:1043F0000022384653F016FA5A2342460221384624
:104400004FF08AFD029847F005FD074617228C21E0
:1044100053F0F7F800221146384653F05BFA28466D
:1044200048F0D6FF01460022384653F0FBF95F23DF
:104430000022052138464FF06FFD38464EF0DAF87D
:1044400000220F49206453F050FA307810B101284F
:1044500002D005E014A100E016A1206C4EF039FF57
:10446000206C4FF0E9FF03B03846BDE8F04F002361
:104470001A4612494FF084BC98A3060881500008E0
:1044800004040020E69C882C00000000BC430708C0
:104490004D6F6E7468000000E697A52C00000000C8
:1044A00044617465000000003CE8AEBEE7BDAE3E6E
:1044B000000000003C5365743E000000815100087C
:1044C00010B54CF083FE044605494DF065FC2046CE
:1044D0006FF00E02BDE81040134601214FF01CBDE5
:1044E0003073090870B547F095FC134C102120611A
:1044F00050F074F820694EF07DF805462D22052114
:10450000206953F03CF814227821206953F079F89F
:1045100000220A49284653F0E8F909A128464EF03E
:10452000D8FE28464FF074FF2069BDE87040002394
:104530001A4605494FF024BC84030020BC430708F9
:104540003C4261636B3E0000511C000810B553F003
:104550005BFE1A4C3221206052F0E6FF28212068D1
:1045600053F0E1F9164848F0D3FE014600222068D6
:1045700053F058F94CF6CD5048F0CAFE01464FF4BE
:104580008022206853F04EF900220EA1206853F0DB
:1045900045FF1C4801220188206853F0AAFF6FF0F4
:1045A00009021346072120684FF0B6FC206800235B
:1045B000BDE810401A4614494FF0E2BB84030020C6
:1045C000878A8000310A320A330A340A350A360AE9
:1045D000370A380A390A31300A31310A31320A31A0
:1045E000330A31340A31350A31360A31370A313863
:1045F0000A31390A32300A32310A32320A32330A87
:104600003234000044590120090C010810B553F060
:10461000FBFD1A4C3221606052F086FF2821606851
:1046200053F081F9164848F073FE01460022606895
:1046300053F0F8F84CF6CD5048F06AFE01464FF4BE
:104640008022606853F0EEF800220E49606853F053
:10465000E5FE0D4801224188606853F04AFF6FF083
:1046600009030022092160684FF056FC60680023AE
:10467000BDE810401A4605494FF082BB8403002074
:10468000878A8000A47F090844590120310C010861
:1046900010B553F0B9FD1A4C3221A06052F044FF1E
:1046A0002821A06853F03FF9164848F031FE014632
:1046B0000022A06853F0B6F84CF6CD5048F028FE22
:1046C00001464FF48022A06853F0ACF800220E4956
:1046D000A06853F0A3FE0D4801228188A06853F022
:1046E00008FF6FF009030A220821A0684FF014FCAC
:1046F000A0680023BDE810401A4605494FF040BBB2
:1047000084030020878A8000A47F0908445901207F
:10471000590C010870B5084D04460021284605F0E3
:1047200003FC2146284605F004FC2846BDE87040FD
:10473000012105F0F9BB000030000240FEE77047A0
:1047400070B505464CF0DAF8044628464CF0FFF800
:10475000072C0ED10749C969884206D106490020B5
:104760000870064800684FF0D1FFBDE87040FEF7C2
:1047700097BA70BD64030020F80200200C030020EB
:1047800070B505464CF0BAF8044628464CF0DFF800
:10479000072C0BD106498969884203D10548006876
:1047A0004FF0B4FFBDE87040FEF77ABA70BD00006C
:1047B0001C0400200803002070B505464CF09EF84C
:1047C000044628464CF0C3F8072C20D1104CA16AAF
:1047D000884218D10F4900200870E06956F07EF831
:1047E000206A56F07BF8606A56F078F8E06955F078
:1047F000C7FF206A55F0C4FF606A55F0C1FF064844
:1048000000684FF083FFBDE87040FEF749BA70BD05
:1048100098030020FA0200201403002070B505461A
:104820004CF06CF8044628464CF091F8072C0BD15C
:1048300006494969884203D1054800684FF066FF80
:10484000BDE87040FEF72CBA70BD0000DC0300200C
:104850001803002070B505464CF050F80446284671
:104860004CF075F8072C16D10B490A68904201D11B
:10487000012200E000224968884201D1012000E0C5
:104880000020024303D0054800684FF03FFFBDE819
:104890007040FEF705BA70BDAC040020480300204C
:1048A00070B505464CF02AF8044628464CF04FF8FF
:1048B000072C07D1044800684FF028FFBDE870407E
:1048C000FEF7EEB970BD00004803002070B5144635
:1048D0000D4600F00AF8284600F007F8204600F0E0
:1048E00004F8BDE8704001F0FBB900B502460023B2
:1048F000100602D501F084FA01E001F0F9F9500642
:104900005B1C020EDBB2082BF2D300BD70B54FF07A
:10491000F1FE2D4C0022C821206152F0D5FF00226B
:104920000521206952F0D6FF284848F0D1FC014605
:104930000022206952F076FF50225221206952F065
:1049400060FE00231222082120694FF0E5FA206959
:104950004DF050FE00221E49606152F0C6FF1DA1BD
:1049600060694EF0B6FC6FF00C052B460022022168
:1049700060694FF0D1FA20694DF03CFE00221849E1
:10498000A06152F0B2FF0121A0694EF095FC208891
:1049900040B1012808D0022808D0032804D00428F8
:1049A00006D009E00F4904E00F4902E00FA100E042
:1049B0001CA1A0694EF08DFC2A46A069BDE870409C
:1049C000042307214FF0A8BA64030020A9A9A90075
:1049D00068D00608436F75727365206C6973740044
:1049E000107F06084C7F0908F07E0908414D383ACF
:1049F00032302D393A35350A233030463546462097
:104A00004D617468230A504D323A30302D31353AB9
:104A100035350A234545303030302045676C6973A1
:104A200068230000414D383A32302D393A35350A85
:104A300023303046354646204D617468230A414D87
:104A400031303A33352D31323A31300A2330304665
:104A5000354646204D61746823000000F8B5234CAC
:104A6000154600920E4607460B4602461CA1A0685A
:104A70004EF066FC2A4631463846FDF7C1F96FF024
:104A800001052E1F2080072829D2DFE800F0040648
:104A90000D151719260016A100E017A1E0684EF0C9
:104AA00018FC16232A4611E015A1E0684EF011FC0F
:104AB00016236FF00C0209E014A102E015A1EDE746
:104AC00016A1E0684EF005FC16233246E06801B0FE
:104AD0000721BDE8F0404FF01FBA13A1DEE7F8BD93
:104AE00025642D25642D256400000000640300204A
:104AF0004D6F6E646179000054756573646179006F
:104B00005765646E65736461790000005475727353
:104B1000646179004672696461790000536174755B
:104B2000726461790000000053756E646179000061
:104B3000F8B5074615460E4618464DF05BFD0B4C82
:104B400000220B49A06052F0D0FE009533463A4651
:104B500008A1A0684EF0F4FBA06801B00823BDE8EE
:104B6000F0406FF0050207214FF0D6B96403002032
:104B7000A8050708323025642D25642D2564000022
:104B800070B506460D4610464DF034FD0E4C002221
:104B90000E49606052F0A9FE032160684EF050FBA0
:104BA0004B21606852F0BFFE2B46324608A1606878
:104BB0004EF0C6FB6068BDE870406FF00C02134613
:104BC00007214FF0A9B90000640300206C450808D4
:104BD000253032643A2530326400000070B51D463D
:104BE000FDF70EF91C4C208028464DF003FD0022F5
:104BF0001A49E06052F079FE20886FF001052E1FFF
:104C0000072828D2DFE800F004060D151719250043
:104C100013A100E014A1E0684EF05BFB16232A46C6
:104C200011E013A1E0684EF054FB16236FF00C0264
:104C300009E012A102E013A1EDE714A1E0684EF033
:104C400048FB16233246E068BDE8704007214FF06C
:104C500063B911A1DFE770BD6403002068D00608C6
:104C60004D6F6E64617900005475657364617900FD
:104C70005765646E657364617900000054757273E2
:104C800064617900467269646179000053617475EA
:104C9000726461790000000053756E6461790000F0
:104CA00070B5204CE06847F0B5F820631E4848F026
:104CB000EFFA01460022206B52F0B4FD2822782141
:104CC000206B52F09EFC206B4DF094FC05460022B8
:104CD000164952F00AFEA17911B1012902D005E06E
:104CE00013A100E014A128464EF0F3FA00231A465F
:104CF000082128464FF010F9206B4CF067FA054662
:104D00000F494DF049F800231A46072128464FF075
:104D100003F9206BBDE8704000231A4609494FF0A3
:104D20002FB80000F8020020878A800004040020C9
:104D3000E697B6E997B4000054696D65000000007D
:104D4000F05B08088D1B000810B51C4C0220E070B9
:104D500053F0EAFB4FF0CEFC5022A021606152F0EC
:104D600050FC60694FF04FFB00221146606952F021
:104D7000B1FD0021606952F030FC102160694FF0F4
:104D80002DFC6069FFF79CFB092108466269FFF76B
:104D9000F7FE0F22092116206369FFF7C9FE0F22D3
:104DA000092116206369FFF719FF6069FFF7AEFD5F
:104DB0006069BDE81040FEF711B80000F80200205D
:104DC0002DE9FC410121264804F08AFF68460DF0D8
:104DD000B2FF00248DF8044001258DF80750042609
:104DE0002020DFF880808DF80560082700908DF87E
:104DF0000670694640460DF0A9FF8DF804408DF815
:104E0000075080208DF8056000908DF80670694687
:104E100040460DF09BFF124801210A3004F060FF6C
:104E2000114858F0D1FF1048014604704570847055
:104E3000C4700471857145710C4CC571204658F0E1
:104E4000DDFF0721204658F0BAFF0021204658F028
:104E5000B1FF2046BDE8FC41012158F0C0BF000071
:104E60000200180000080140B4000020003001409A
:104E70002DE9FC410121244804F032FF01248DF882
:104E8000074000258DF8045008208DF806004FF4E7
:104E90006040DFF87880182600908DF8056069463C
:104EA00040460DF053FF10208DF8060007020097D2
:104EB0008DF80560694640460DF048FF13481030F4
:104EC00007600121124804F00BFF124858F07CFFE4
:104ED000104801464470057085700571C570C47135
:104EE000447184710C4C204658F088FF07212046FD
:104EF00058F065FF0021204658F05CFF2046BDE8D1
:104F0000FC41012158F06BBF03001800000C014068
:104F10000E001C00BC0000200038004070B50646A2
:104F20000024114D03E0641CE4B2C82C19D0022106
:104F3000284658F05CFF0028F5D00B480C3006607E
:104F4000002403E0641CE4B2C82C0AD001212846E6
:104F500058F04DFF0028F5D0284658F045FFC0B264
:104F600070BD002070BD00000038004070B50546DF
:104F70004BF0C4FC044628464BF0E9FC072C0BD14F
:104F800006498968884203D1054800684FF00AFB4A
:104F9000BDE87040FDF784BE70BD000040040020F5
:104FA0001C03002070B5204CE06846F033FF2064FD
:104FB0001E4848F06DF901460022206C52F032FC88
:104FC00028227821206C52F01CFB206C4DF012FB43
:104FD00005460022164952F088FCA17911B1012939
:104FE00002D005E013A100E014A128464EF071F9AB
:104FF00000231A46082128464EF08EFF206C4CF004
:10500000E5F805460E494CF0C7FE00231A46072175
:1050100028464EF081FF206CBDE8704000231A4600
:1050200008494EF0ADBE0000F8020020878A8000DB
:1050300004040020E8AEBEE7BDAE00005365740076
:105040001C6208088D1B000810B50C4C0620E0708F
:1050500053F06AFA4FF04EFB5022A021606252F0EA
:10506000D0FA606A4FF0CFF90021606A52F0B5FAC9
:10507000606ABDE81040FEF7A1BB0000F802002006
:10508000FEB505464BF03AFC044628464BF05FFC63
:1050900005461C2C64D1334C04F16406206985421A
:1050A0000AD153F0D1FC3070206953F0CDFC024698
:1050B0002DA1A06A4EF044F9606985420AD153F0EF
:1050C000C3FC7070606953F0BFFC024626A1E06A21
:1050D0004EF036F9A06985420AD153F0B5FCB070A4
:1050E000A06953F0B1FC02461FA1206B4EF028F9D5
:1050F000E06985420DD153F0A7FC00F5FA60B0805D
:10510000E06953F0A1FC00F5FA6217A1606B4EF064
:1051100017F9206A85420AD153F096FCB071206AD3
:1051200053F092FC024610A1A06B4EF009F9606AA0
:1051300085420AD153F088FCF071606A53F084FC18
:10514000024609A1E06B4EF0FBF8B088F279B17924
:105150008DE80700B3787278317804A0FBF7A6F9E0
:10516000FEBD0000400400202564000025642D25BC
:10517000642D25642D25642D25642D25640A0000E9
:1051800010B54BF0BBFB07281FD11048104982888F
:105190000A8082798A70C279CA7002780A7142786C
:1051A0004A7180788871084658F02EF909480178CC
:1051B0000648643839B1012907D107A1006CBDE860
:1051C00010404EF086B808A1F8E710BDA4040020F6
:1051D000CE000020FE0200203C53657420737563EE
:1051E000636573733E0000003CE8AEBEE7BDAEE60B
:1051F0008890E58A9F3E000070B5204CE06846F03C
:1052000009FEE0631E4848F043F801460022E06BC7
:1052100052F008FB28227821E06B52F0F2F9E06BA3
:105220004DF0E8F905460022164952F05EFBA179DF
:1052300011B1012902D005E013A100E014A1284614
:105240004EF047F800231A46082128464EF064FE27
:10525000E06B4BF0BBFF05460E494CF09DFD002373
:105260001A46072128464EF057FEE06BBDE8704015
:1052700000231A4608494EF083BD0000F8020020C2
:10528000878A800004040020E781AFE5858900005B
:1052900052474200486808088D1B000810B5124CA0
:1052A0000520E07053F040F94FF024FA5022A0217D
:1052B000206252F0A6F90021206A52F08EF91021E6
:1052C000206A4FF08BF9206A4FF09DF8206AFEF7B4
:1052D000BFF8206AFDF7F4FF206AFEF77BF8206A2A
:1052E000BDE81040FDF712BEF80200205BF0D4BF0D
:1052F0001248016841F4700101601148016841F0F1
:105300000101016001688907FCD5416821F00301B2
:105310004160416811F00C0FFBD10168094A11404E
:1053200001600021416001634FF41F018160034966
:105330004FF00060803908607047000088ED00E0A1
:1053400000100240FFFFF2FE2DE9F0411B4E01214B
:1053500030465AF0F6FD00282DD0194C607801280F
:1053600023D1A078174F184D30B9386846F0DAFBD2
:1053700000EB800040002870A078012806D1386832
:1053800046F0D0FB00EB800040006870A078022857
:1053900006D1386846F0C6FB00EB80004000A870DC
:1053A000AA7829786878FFF791FA3046BDE8F0418D
:1053B00001215AF0C3BDBDE8F0810000002C01407E
:1053C000F4030020E0030020F803002010B50121C1
:1053D0008C0720465AF0B5FD00280AD05BF0BCFED1
:1053E000012055F053F92046BDE8104001215AF044
:1053F000A5BD10BDF8B5524F012138465AF0A1FDA8
:1054000000286ED0012057F03DFF4E4D18B357F0E5
:1054100093FF58F063F84C4C20688006FCD50120BF
:1054200057F022FF20688006FCD548480078012804
:1054300011D1474C012120684DF03EFFA879009022
:105440006B792A7943A120684DF07AFFEA78A97830
:105450002888FFF703FB454C0026607B012829D1F3
:10546000E0882979884225D120896979884221D12B
:105470006089A97988421DD8207B20B90022114675
:10548000FF20FFF723FA207B012804D10022FF210F
:105490001046FFF71BFA207B022804D10021FF22CF
:1054A0000846FFF713FA207B401CC0B22073032884
:1054B00000D326732E4C2078032807D1E078401CB7
:1054C000C0B2E070032801D3E67010E0E078012854
:1054D00002D0022806D00AE0264882780178407877
:1054E00003E02BE0002211461046FFF7EFF9224DB2
:1054F000DFED220A224E95ED000A20EE200ABDEED5
:10550000C00A10EE100A68603168814204DB002294
:10551000FF211046FFF7DAF92078012808D030681B
:105520006968884204DA002211461046FFF7CEF976
:105530003846BDE8F84001215AF000BDF8BD000032
:1055400000340140CE00002004280040F802002072
:1055500068030020236666613530302025303264D0
:105560003A253032643A2530326423004459012010
:10557000F4030020F8030020C40000200000C8420B
:10558000A00400202DED028B00F088FB00F0A8FBAA
:105590004CF054FE52F092FA52F0B2FAFDF73EFB94
:1055A00000F096F800F012F90A224FF0F0610F486F
:1055B00000F08AFA0D48FBF7B2F80D49086000F0D8
:1055C000ABFC9FED0C8B0D4C5BF0C6FD55F0EAF883
:1055D000FCF74CFA10EE100A5CF0D8FC53EC182BD8
:1055E0005CF0D6FB5CF04AFA2060EDE7AE59012092
:1055F000200400209A99999999990940C4000020A3
:105600001CB55BF09DFA0D490120CDE90001002396
:105610004FF42F620AA10C485BF0AAFF074C241F2D
:105620000128E06008D009A0FAF740FFA0685BF00D
:10563000BBFB5BF0A5FAFEE70BA0F5E7040000203A
:105640005461736B31000000855500084661696C38
:10565000656420746F2063726561746520612074D5
:1056600061736B0D0A0000005461736B2043726517
:1056700061746564207375636365737366756C6CC0
:10568000790D0A0010B501214FF4E01004F028FB59
:105690004FF0804440F2E732EF2120465AF038FCC8
:1056A000002120465AF040FC002120465AF037FCE9
:1056B0000122114620465AF04BFC002211461C20C4
:1056C00056F084FB2046BDE8104001215AF031BC61
:1056D00010B50121104804F003FB114C0F4AEF21D3
:1056E00020465AF015FC002120465AF01DFC0021EE
:1056F00020465AF014FC0122114620465AF028FC9C
:10570000032200212C2056F061FB2046BDE810400A
:1057100001215AF00EBC00000D0018007F841E000D
:105720000034014070B5204CE06846F073FB6063C4
:105730001E4847F0ADFD01460022606B52F072F842
:1057400028227821606B51F05CFF606B4CF052FFB7
:1057500005460022164952F0C8F8A17911B1012975
:1057600002D005E013A100E014A128464DF0B1FDE0
:1057700000231A46082128464EF0CEFB606B4BF002
:1057800025FD05460F494CF007FB00231A4607216B
:1057900028464EF0C1FB606BBDE8704000231A46FE
:1057A00009494EF0EDBA0000F8020020878A800017
:1057B00004040020E5AE9AE697B6000054696D65D2
:1057C00072000000746E08088D1B000810B50121DE
:1057D000104804F085FA104C48F6B702EF21204635
:1057E0005AF096FB002120465AF09EFB00212046ED
:1057F0005AF095FB0122114620465AF0A9FB0422DB
:105800000021192056F0E2FA2046BDE8104001219F
:105810005AF08FBB0B001800002C014010B5104C43
:105820000320E07052F080FE4EF064FF5022A02171
:10583000A06151F0E6FE0021A06951F0CEFEA06902
:105840004EF0E1FDA069FEF781FEA069FEF7DEFEE5
:10585000A069FEF71DFFA069BDE81040FEF742BE3B
:10586000F802002070B5594C2046616E456D6429E0
:1058700019DC0A3101222846616646F0AAF994F83B
:10588000640000224006010E606D52F01DF8606E4B
:10589000C821B1EB400F7DDC606DBDE87040002297
:1058A000FF2152F011B8A06E05281EDA401C03B289
:1058B000A0660022092128464EF02EFBB4F86800AD
:1058C0000022C0EBC030400003B20921206E4EF030
:1058D00023FB94F8680032214843C1B20022206EB5
:1058E00051F0F2FFA06E05286EDBA06D4EF00EFFAA
:1058F000E06D54F0F3FF52F017FE46F08BFA0021F2
:10590000606451F06AFE1021606C4EF067FE142254
:105910008221606C51F075FE6FF00C0300220521AE
:10592000606C4EF0F9FA2A4847F0B2FC01460022BA
:10593000606C51F077FF00221146606C51F0CAFF95
:10594000606C4CF057FE05460022224951F0CDFF15
:1059500021A128464DF0BDFC28464EF054FD002301
:105960001A461F49606C4EF00BFA2079002827D1A7
:1059700052F0DAFD4CF03EFE0021A06451F02DFE05
:105980001021A06C4EF02AFE00221249A06C51F0AA
:10599000ACFF00E018E013480078012802D002288C
:1059A00003D007E0228910A101E022891AA1A06C8E
:1059B0004DF0C6FC00231A460221A06C4EF0ACFA52
:1059C000BDE87040FDF706B970BD0000F802002088
:1059D000878A800004040020E8BF9BE585A50000BD
:1059E000E92B0008D6000020E99C80E8AEB0203307
:1059F0003020E4B8AAE59B9BE7BAA7E58D95E8AF10
:105A00008D2E0AE5B7B2E8AEB020256420E4B8AA2E
:105A1000E58D95E8AF8D2E00E99C80E8AEB020338F
:105A20003020E4B8AAE4BA8CE7BAA7E58D95E8AFD0
:105A30008D2E0AE5B7B2E8AEB020256420E4B8AAFE
:105A4000E58D95E8AF8D2E0010B5074C102120464E
:105A50005AF0BEFF002806D02068201D0068BDE86F
:105A60001040FCF745B910BD00380140FEE70000CA
:105A700010B5FFF7FDF902494FF48050086010BDE2
:105A8000100C014070B5040300F0AEF800F056F8B9
:105A90000C484FF4805505602020FFF73FFAC4F30F
:105AA0000740FFF73BFAC4F30720FFF737FAE0B2ED
:105AB000FFF734FA0348001F0560BDE8704000F0AE
:105AC0003DB80000140C01402DE9F0410746114893
:105AD0004FF4805615460C4606600320FFF71EFA69
